:1000000012C021C020C01FC01EC01DC01CC01BC00C
:100010001AC019C018C017C016C015C014C013C02C
:1000200012C011C010C011241FBECFE5D4E0DEBF46
:10003000CDBF20E0A0E6B0E001C01D92A436B2071B
:10004000E1F73CD062C0DCCF81B381BB82B38C606E
:1000500082BB87B3836087BB0895809162009091D3
:100060006300019729F4109263001092620006C0A9
:1000700081E090E0909363008093620010926100B1
:100080001092600008958091600090916100019746
:1000900029F4109261001092600006C081E090E0A7
:1000A0009093610080936000109263001092620050
:1000B0000895829BD2DF839BE6DF0895C5DFD1E000
:1000C000C2E0F7DF8091620090916300019741F4F4
:1000D000D8BB8FE493EC0197F1F700C0000018BA89
:1000E0008091600090916100019741F4C8BB8FE45A
:1000F00093EC0197F1F700C0000018BA8FE493EC7D
:0E0100000197F1F700C00000DCCFF894FFCFAC
:00000001FF
