:100000000C9434000C9446000C9446000C9446006A
:100010000C9446000C9446000C9446000C94460048
:100020000C9446000C9446000C9446000C94460038
:100030000C9446000C9446000C9446000C94460028
:100040000C9446000C9446000C9446000C94460018
:100050000C9446000C9446000C9446000C94460008
:100060000C9446000C94460011241FBECFEFD8E03C
:10007000DEBFCDBF21E0A0E0B1E001C01D92A43001
:10008000B207E1F70E9487000C94C9000C940000AD
:100090008AB18AB98BB18C608BB984B1836084B921
:1000A00008954A9B05C04B99FCCF81E090E00895EC
:1000B00080E090E008958091020190910301892BE6
:1000C00059F481E090E09093030180930201109233
:1000D0000101109200010895109203011092020193
:1000E00008958091000190910101892B59F481E0DC
:1000F00090E090930101809300011092030110920F
:1001000002010895109201011092000108950E94C9
:1001100048000E945100892B19F40E945B0002C024
:100120000E94710080910201909103010197A9F44E
:10013000289A2FEF81EE94E0215080409040E1F723
:1001400000C0000085B185B92FEF81EE94E0215009
:1001500080409040E1F700C0000080910001909144
:1001600001010197B1F6299A2FEF81EE94E0215019
:1001700080409040E1F700C0000085B185B92FEFC5
:1001800081EE94E0215080409040E1F700C00000F3
:06019000C0CFF894FFCF80
:00000001FF
