S010000041756667616265322E7372656337
S11300000C9434000C943E000C943E000C943E007E
S11300100C943E000C943E000C943E000C943E0064
S11300200C943E000C943E000C943E000C943E0054
S11300300C943E000C943E000C943E000C943E0044
S11300400C943E000C943E000C943E000C943E0034
S11300500C943E000C943E000C943E000C943E0024
S11300600C943E000C943E0011241FBECFEFD8E048
S1130070DEBFCDBF0E945E000C9488000C9400008B
S1130080009719F480E28BB908958130910519F431
S113009080E48BB90895029711F480E88BB9089530
S11300A08230910511F41BB808958130910511F443
S11300B01BB80895892B09F41BB808958AB1806E82
S11300C08AB9C0E0D0E0CE010E9440002FEF83EC5B
S11300D099E0215080409040E1F700C00000CE013B
S11300E00E9450002196C330D10569F781E090E069
S11300F00E9440002FEF83EC99E021508040904013
S1130100E1F700C0000081E090E00E945000D9CFE8
S1070110F894FFCF8D
S9030000FC
