S01F000041756667616265325F4C6175666C696368745F696E5F432E7372656355
S113000033C0000039C0000037C0000035C0000014
S113001033C0000031C000002FC000002DC000001C
S11300202BC0000029C0000027C0000025C000002C
S113003023C0000021C000001FC000001DC000003C
S11300401BC0000019C0000017C0000015C000004C
S113005013C0000011C000000FC000000DC000005C
S11300600BC0000009C0000011241FBECFEFD8E070
S1130070DEBFCDBF20D033C0C3CF009719F488E0D2
S11300808BB908958130910519F480E18BB90895F5
S1130090029711F480E28BB908958230910511F42E
S11300A01BB808958130910511F41BB80895892B6C
S11300B009F41BB808958AB188638AB9C0E0D0E016
S11300C0CE01DBDFCE01E9DF2196C330D105C1F7D4
S11300D081E090E0D2DF81E090E0DFDFEFCFF894C1
S10500E0FFCF4C
S9030000FC
