S01100006175666761626533622E73726563B3
S113000012C07EC0A0C01FC01EC01DC01CC01BC02B
S11300101AC019C018C017C016C015C014C013C028
S113002012C011C010C011241FBECFE5D4E0DEBF42
S1130030CDBF20E0A0E6B0E001C01D92A436B20717
S1130040E1F72ED0A3C0DCCF8091620090916300D1
S1130050019729F4109263001092620006C081E0B7
S113006090E090936300809362001092610010927C
S1130070600008958091600090916100019729F4D7
S1130080109261001092600006C081E090E09093AD
S113009061008093600010926300109262000895E2
S11300A087B3836087BB82B38C6082BB80EC8BBFD9
S11300B082E085BF789431E022E0809162009091E3
S11300C06300019741F438BB8FE493EC0197F1F797
S11300D000C0000018BA80916000909161000197FF
S11300E041F428BB8FE493EC0197F1F700C00000C2
S11300F018BA8FE493EC0197F1F700C00000DDCF4C
S11301001F920F920FB60F9211242F933F934F9388
S11301105F936F937F938F939F93AF93BF93EF936B
S1130120FF9392DFFF91EF91BF91AF919F918F91D8
S11301307F916F915F914F913F912F910F900FBEDF
S11301400F901F9018951F920F920FB60F921124C3
S11301502F933F934F935F936F937F938F939F93CB
S1130160AF93BF93EF93FF9385DFFF91EF91BF911F
S1130170AF919F918F917F916F915F914F913F913B
S11301802F910F900FBE0F901F901895F894FFCFEA
S9030000FC
